:100000000BC00350F0F7019500FF00C001FF00C0D6
:1000100001FF00C0089585C01124E6E7F0E0B0E0DC
:10002000A591AA2319F005910C93FACFB1E01D9286
:10003000B530E9F744245524439422242394322CE8
:10004000339404EB00931C0105E100931D0109EEBC
:100050000093060100E00093070120920401209222
:100060001701B3E0A0E0ECE0F5E105910D93A83AAB
:10007000E1F77894F1C35E025DFF240E2502273F6D
:100080002AFF4C504D016F02803381198902887A12
:100090008B008A4BB033B10A0000F2BDE1BD2FBA2C
:1000A0000895000000C000C0000000000000089596
:1000B000FCCF000000000150F0F7089500917F018F
:1000C00010918001800E911E00919101109192017A
:1000D000A00EB11E0091A3011091A401C00ED11E6B
:1000E000440C551C57FC422456FC4224192D110F78
:1000F00019210091810117FD019510919301B7FC21
:100100001195010F1D2D17FD10951695010F1091DA
:10011000080157FC1195010F005A03FB01F90BB9B7
:1001200008950F920FB60F921F920F931F931124F1
:10013000C5DF009114010B3281F0093009F42998D0
:100140000B3009F4299A0395009314011F910F9124
:100150001F900F900FBE0F9018951091840008E724
:10016000011B4FDFFF93EF9306E5A3DF049104919A
:1001700033BC09E60093B2000EE29DDFDF93CF931C
:10018000BF93AF939F938F937F936F935F934F939F
:100190003F932F93FF92EF927F9200911201109163
:1001A0001301020D111D00931201109313010DE6AE
:1001B0000093B40001EA0093B300662400E40093C6
:1001C000020101E000930301F4996394109261012C
:1001D00044275527A0910201B09103016FDF6620EB
:1001E000A1F41D911093610100C000C06D90A09317
:1001F0000201B0930301712CE1EBFBE0E10FF11D73
:1002000033BC04E60093B20009946A944FDF109166
:1002100061017394F1CF622C0FEA4DDFF1C10FEA57
:1002200049DFEEC12FE30AE045DF28B90BE941DFE2
:10023000E3C10AE03FDF01E108B90BE93ADFDCC1C5
:10024000F79930C110911901A0E2B1E0C0EBD1E003
:10025000FEE1272D26952E7F2850E22E69E1709130
:100260003A0185E0871B04E025DF18B900C000C013
:100270007150F0F70D912E2D3991230F24FD0CC0F4
:100280002295E22FE00F04900EBC615099F7815047
:10029000F0F70DDF18B8B2C100240A940000F4CFC3
:1002A000A0910101AF5CB1E6BA1B09E002DFA150E9
:1002B000F0F7F3D1B150F0F718B8A0C167E1F39BA4
:1002C0006AE2762FFCE0EAED272D269520952E7F19
:1002D0002955E20FF11D349100911201000F071909
:1002E00005FD672700C010E002E2039F00911201A4
:1002F000001A110A001A110A102D10FE6727112486
:1003000025E4131B08F4672768B92A95D1F7000084
:1003100018B874C102E0CEDEA72DAA0FA07FB3E00B
:1003200077FCB4E0CFE091D167C102E0C4DEA72D35
:10033000A095B3E0A4FDB4E0A295A07FCFE085D165
:100340005BC16CE378E2872F962FFFE100910001FB
:10035000252F2795242F27950203212D1124309135
:100360001201230F230F26FDBC012F73E0E6E21BD1
:100370000491059505951BE4101BE05C049105951F
:1003800005952BE4201BE05C0491059505953BE465
:10039000301B9091010100C0049186E9831B321B40
:1003A000211B190F891B1150F0F768B92150F0F784
:1003B00078B93150F0F718B88150F0F7000018B84C
:1003C0001DC1DA01B695A795B3E01C911D39D0F493
:1003D000B4E06C91661F661F661F6370ECE0F1E08D
:1003E000E60FF11D60812DE9211B03E064DE18B8E2
:1003F0001150F0F7000068B9000018B82150F0F76C
:1004000018B8FCC007EA57DEF7C0DA01B695A79521
:10041000B3E01C911F35D8F4B4E06C91661F661FE1
:10042000661F6370ECE0F1E0E60FF11D60812FE5DF
:10043000211B03E040DE18B81150F0F7000068B946
:10044000000018B82150F0F7000027D1D5C00AE607
:1004500032DE23D100C018B8D1C003E02BDE642FF8
:1004600066956156669F102D1125655260956370E3
:10047000639500911201069F101911246FE32DE975
:10048000211B1D3958F418B81150F0F7000068B955
:10049000000018B82150F0F718B8B0C001EA0BDE20
:1004A000AFC00491272D6BE27FE309E602DE0AD19B
:1004B00001E301DEA5C009E0FEDD20E0A72DAA0FC3
:1004C000A07FB3E028B902E0F4DDC8E0BED000C0F0
:1004D00018B8E3D091C005E0ECDD20E060910C019C
:1004E00070910D0180910E0190910F01A72DAA0F1F
:1004F000A095A07FB3E0A85F28B906E0DBDDC8E0E7
:100500001E919B0111FD9C0110FD232F28B90000B5
:10051000D12F9B01D3FD9C01D2FD232F28B91E9121
:100520009B01D5FD9C01D4FD232F28B90000CA955D
:100530009B01D7FD9C01D6FD232F28B911F704910B
:10054000049118B8AAD058C008E0B5DDA72DAA0FAD
:10055000A07FB3E077FCB4E0F29BA86018B80BE191
:10056000A9DDC8E072D000C018B806E2A3DD48C01B
:1005700020910F010BE29EDD28B909E59ADD18B83C
:1005800002E298DD3DC025E10EE194DD28B904E7E3
:1005900091DD18B805E18FDD33C008E08ADDB4E0F5
:1005A000A72DA69528E00C9108B9A05E0EE082DD8B
:1005B0002A95C9F7000020C0A72DA695A695A69557
:1005C0000CE00A9F1124B3E0A02DCCE0272D20548D
:1005D0006BE27FE37B01F59B612DF59B712DF69B13
:1005E000E12CF69BF12C00C02FD0B701272D18B8B5
:1005F00069D001E05EDD04C018B800C001E05BDD39
:10060000420D511D403E50FD29F0A0910201B091D4
:100610000301E4CD53DDF1981092140102E006BB12
:1006200078945AD07F90EF90FF902F913F914F9107
:100630005F916F917F918F919F91AF91BF91CF917A
:10064000DF91EF91FF9182CD3DD060910C017091CF
:100650000D0180910E0190910F011D919B0117FDDD
:100660009C0116FD232F28B90000D12F9B01D5FD39
:100670009C01D4FD232F28B91D919B01D3FD9C0122
:10068000D2FD232F28B90000CA959B01D1FD9C0102
:10069000D0FD232F28B911F708952BB121F923FBA1
:1006A00026953FE7321B7FE38BE2022FAADC78B965
:1006B000000088B900C0049165E018B8000068B96E
:1006C000032F9FCC2D3128F4EFECF8E0E20FF11D61
:1006D000099408E0EEDC08951FD20091C9010D5F76
:1006E0000093C90100910401E1EBFBE0E00FF11D73
:1006F000099400914101025020F0009341010093C0
:100700004301E0911201FFE104910595009300017E
:10071000E05CFFE104910595059500930101EA5223
:10072000049105951FEB100F10934501101B101B32
:1007300010935101A0EBB1E0FFE129E1E09112013A
:10074000EE0FEE0FE850049105950595059505957A
:100750000E7F0D932A95B1F700913A010150D8F41C
:10076000C0E2D1E028E1098109932A95E1F7E091FF
:100770003C01F0913D010091620125E05CD11F3107
:1007800011F40FEF10E000936201E0933C01F0934D
:100790003D01188305E000933A01089553D050912C
:1007A000120140911301479557950FE11BE3A0E01B
:1007B000B3E0FFE11AD0220F220F922F1A9515D025
:1007C000922B990F990F1A9510D0922B990F990F80
:1007D0001A950BD0922B9D93115060F71124A20D06
:1007E000B11D1BE3015030F70895E801C51BDE5031
:1007F000CC02E12DDD02E10DEE0FEE0F24912595E7
:100800002595E801D51BC653CC02E12DDD02E10D93
:10081000EE0FEE0FEE0F349135953595230FE8016D
:10082000D051C156CC02E12DDD02E10DEE0FEE0FED
:10083000EE0F349135953595230F221F221F221F6D
:1008400023700895F19AF199FECF0895FFCFE1EB5F
:10085000FBE0E10FF11D09941124009110011091AA
:100860001101F8942091120130911301789420170E
:10087000310720F410911701EADFEECFE0911C015F
:10088000F0911D010091390123E0D5D0103091F491
:1008900026E0D1D01093110125E0CDD0110F110F1A
:1008A000110F1093100100933901E0931C01F09394
:1008B0001D01D2CF113051F426E0BDD00093390193
:1008C000E0931C01F0931D01C2DFD8CF123029F450
:1008D00026E0B1D010931701D7CF133029F426E0CA
:1008E000AAD010930401D0CF143089F426E0A3D00D
:1008F00010930C0126E09FD010930D0126E09BD0B1
:1009000010930E0126E097D010930F01BDCFA0E405
:10091000B1E026E090D0112329F01D9328E08BD080
:100920001D93F7CF1D921D92AFCF07E100933D01BC
:1009300000E000933C0110926201089501E10093F0
:10094000190105E000933A0102C0F49A0895F49861
:100950000895A1E0B0E0D3E0C0E0AA0FBB1FB7FD4F
:10096000A225B6FDA225B993D530B9F708956ADF5F
:10097000C0E0D3E04F855889698939D038D037D065
:1009800036D08993CF3EC1F7D430B1F7FFE170E1A3
:10099000E0911201D091C901EF93DF9309E110E0DA
:1009A000F0D1A801440FED2FE09500E01EE1E9D160
:1009B000400F510F11244058550FD4E0550FD10965
:1009C000507FC52F042F02950F70C02B10EC4C7078
:1009D000445018F016951695FBCF0881012B08831B
:1009E000DF91EF91E150D3507150B0F6089510E0CF
:1009F00041FD1E5F40FD1F5F57FD185F56FD1C5FE8
:100A000055FD1E5F54FD1F5FAA0FBB1FB7FDA2253A
:100A1000B6FDA2252B2F2670120F110F110F110FEB
:100A2000110F881F110F881F661F551F441F661F57
:100A3000551F441F0895112D000F19F405910894B6
:100A4000001F111F2150C1F70895000F29F425DB65
:100A500000B531960894001F111FB8F70895302F84
:100A60003F70132F1295007F19F42D812C83089568
:100A7000003119F42C812D830895003311F41A8765
:100A80000895003419F416951D870895003511F462
:100A90001E870895003619F4330F398B08950037F7
:100AA00021F433FD306F3B870895003999F4032F0B
:100AB000000F0871337014E0131B209108012223EA
:100AC00021F020911601121720F4009308011093D1
:100AD00016010895003A21F41F81130F1987089514
:100AE000003B21F41F81131B19870895003D11F469
:100AF0003E830895003E09F41E83F09A0895198AF2
:100B00001C831D821E820F83188609871A861B8606
:100B100018E11D871E860895F09976C00091600146
:100B2000015008F06FC000911501015008F03AC063
:100B3000C0E7D1E0E0910601F091070100911A01B0
:100B400014E083DFE0930601F093070100931A019C
:100B5000012D1123F1F011501695001FEFE8F0E080
:100B6000E10FF11D110FE10FF11D017039F0319608
:100B700094DA10B5319691DA00B506C08EDA00B578
:100B800031968BDA10B512951F7024EC37E1020F05
:100B9000131F088319831A8202E1C00FD11DC63AC0
:100BA00049F60FE100931501C0E7D1E0E881F98132
:100BB0000E2F0F2B09F10A8122E03DDF312F31FF8B
:100BC0000EC025E038DFDF01E6E7F0E0E10FF11DC0
:100BD00064DA10B5FD011B831C831D821E8230FF69
:100BE00008C027E028DF402F012F01501B8187DF3D
:100BF000042F0A83E883F98302E1C00FD11DC63AAE
:100C0000A9F603E000936001C0E7D1E0EC811E810A
:100C1000E15048F0112339F4F12D3FDA00B5EE5FD1
:100C2000EC831DDFF3CF115008F01E832885398532
:100C3000EC85FFE114910E851003002717FC0FEFE0
:100C4000001C111C001F001C111C001F210D301F57
:100C500011240D85E00FEC87EAEDFCE0330FE30F84
:100C6000F11D4591559165917591641B750B729FAE
:100C7000C001629F810D1124911D480F591F2885C5
:100C800039850A85112707FD1FEF200F311F200F1F
:100C9000311F37FD212D37FD312D288739870989EF
:100CA0001B85010F07FD00E005FD0FE1002311F496
:100CB000512D412D588B4F87098B02E1C00FD11D5B
:100CC000C63A09F0A3CF0091080110911601011B4B
:100CD00007FD012D0093080108954A004E005300BE
:100CE00058005D00630068006F0075007C008400A0
:100CF0008C0094009D00A600B000BB00C600D1008F
:100D0000DE00EB00F9000801180128013A014D014D
:100D1000610176018C01A301BC01D701F30111022D
:100D20003002510275029A02C202EC021803470314
:100D30007903AE03E60322046104A304EA04350543
:100D40008405D80531068F06F3065D07CD074408F4
:100D5000C2084709D4096A0A080BB00B620C1F0DC0
:100D6000E70DBA0E9B0F881084118E12A913D414AC
:100D700011166117C5183E1ACE1B751D361F11219D
:100D800008232491E05C34918303A12D9203A119DF
:100D90008203B12D9303B10D8D010895222781E0C7
:100DA00090E0000C111C221F10F0231718F0231BD9
:100DB000089401C08894881F991F98F7089510E43B
:100DC000112E002431EA360FE9DF082F4003412DB0
:100DD000852F8595580F5003512D089510E4112E3D
:100DE000002431EA360FDADF082FC803412D18F44A
:100DF000403B88F002C04F3470F4D803112D18F432
:100E0000103B48F002C01F3430F4852F8595580FF1
:100E1000D803512D089558E7089510E4112E0024A9
:100E200031EA360FBBDF082F4003412D5003512D0F
:100E30000895405B5758A52FB3E04C93B4E0062FBC
:100E400065956595060F00580C930895B3E0A0E0F2
:100E500008EC0D93AA23E9F70895F4DCF7DFD091AD
:100E60001301D695D0911201D79573E2FFE163E0AB
:100E70006F93679F602D655353E05F93579F502D8D
:100E8000555343E04F93479F402D45535F936F93D6
:100E90008A01ED2FED0F75DF512F162FED2FE55243
:100EA00070DF402F612F8BDF4E51C3DF6F915F9159
:100EB0004F91415038F75F915150F8F66F91615062
:100EC00008F0D6CF11240895BDDCAF93BF93BEDFE9
:100ED000BF91AF91E0911201F0911301F695E79562
:100EE000F695E795F695E795FFE10491112707FD43
:100EF0001FEFA00FB11FA00FB11FE05C04911127DD
:100F000007FD1FEFC00FD11FC00FD11FC00FD11F92
:100F1000ED2FFB2FAF93BF9360E66F936F0F6F0FB3
:100F20006F0F669F402D6D52669F502D6F916F938E
:100F30004E1B4595042F0595400F5595052F05959A
:100F4000500F4CDF76DF6F916350603A31F7BF91FD
:100F5000AF911124089518B800C068B9089518B861
:100F600068B900000895000000000000049118B85E
:100F7000089500000000000068B9089595D8FCDFCE
:100F800018B88FC801E097D868B9049127C18DD8E7
:100F9000F3DF24C18AD8F0DF00C018B800C000C059
:100FA00068B9000018B883C8E6DF18B800C068B98F
:100FB0000491049118B800C068B9D8CFDDDF0000F3
:100FC00018B800C068B90491049118B8000068B955
:100FD000CCCFD2DF00C018B8000068B904910491EA
:100FE00018B8000068B9C1CFC7DFB9DF18B8000072
:100FF00068B9BACFC0DF00C018B868B900C00491A2
:1010000018B8000068B9B0CFB6DF00C018B800004B
:1010100068B90000A4DF00C018B800000895AADF76
:1010200000C018B8000068B900C018B8000068B95E
:101030003ED818B8000008959CDF00C018B868B901
:1010400000C018B8000068B900C0049118B82EC8D4
:101050002CD868B900C018B88CDF18B826C80000B2
:1010600068B90491049118B800C000C078B904911F
:1010700018B8000068B9000018B815C8000068B9B1
:1010800016D818B800C078B900C0049118B809C8BB
:1010900068B90BD818B8000078B900C0049118B826
:1010A000000068B900C000C018B800C868B9FCD713
:1010B00018B878B900C000C018B8000068B9049129
:1010C000049118B8F4C7000068B9F0D718B800C088
:1010D00078B918B851DF00C000C018B800000895F2
:1010E000000068B90491049118B8000068B90000C4
:1010F00018B800C068B918B800C068B934CF0491F6
:1011000068B9000018B8049168B9049118B868B9B2
:10111000049118B8000068B927CF00C02BDF000089
:1011200018B868B900C000C018B8000068B91DCF71
:1011300020DF00C018B868B900C0049118B80000DA
:1011400068B914CF17DF0BDF18B8049168B900C075
:1011500018B8000008950EDF049118B8000068B9AF
:1011600000C0049118B89FC706DFF5DE000018B86C
:101170009AC701DFF0DE00C018B89AC70000FCDE95
:1011800000C018B8F9DE00C018B892C700C00491BA
:1011900068B900C018B80000ECDE18B884C7EECEFD
:1011A000F1CEF5CEF7CE00CF09CF13CF1DCF22CF92
:1011B0002BCF35CF41CF4CCF52CF60CF69CF76CF39
:1011C00082CF8ECF9CCFA9CFB3CFBCCFC4CFCCCF53
:1011D000D0CFD4CFDBCF03E06DD768B918B862C7E2
:1011E00017FEDCCD1094019408F01394D7DD81959F
:1011F00008957A01CC0FCC0FDD0FDD0F10E2042F24
:101200009F018303412D920341198203612D9303B2
:10121000610D440280015502000D111D11F40135CC
:10122000C8F1000F111F000F111F000F111F20E840
:1012300030E0320F339F119D131408F0321B2695B6
:10124000C1F7EB03612D47FD0BC0042F051B10E117
:101250000102342F350F3395C3DF90E1981B09C08D
:10126000052F040F10E10102352F341BB9DF90E385
:10127000981B9719670D02E064FD022594FD022575
:10128000C02B970D9195971902E064FD022594FDFE
:101290000225D02BA7014E5F08950EB314E001275D
:1012A0000EBBF0911301E0911201F695E795F695CA
:1012B000E795F695E795F0911801EF0FFFE104919E
:1012C000E05C1491F80170901201F0901301F69413
:1012D0007794A0E0F299A8E05EE141EE8ADF89DF31
:1012E00088DF87DF00EFB4E0A027DC93B3E0A0271E
:1012F000CD93413299F7A85F41EE525078F711240F
:10130000089500911801025E00931801C6CF4F9313
:101310005F93D0E04402700155029001B701620F63
:10132000731F7031C8F4D395D3FD16C045028001F8
:10133000029512950F70107F012B502F5F0F8701C0
:10134000021B130B15950795029512950F70107FD0
:10135000012B402F4E0FDECFD3705F914F91CC0FFA
:10136000CC0FCD2B4E5F0895FFE1E0911201049167
:10137000E05C14912AE28203E12D28E09203FCE173
:10138000F119B3E0A0E05A2F52955F705051550FFC
:101390004A2F4F70440F440F4051440FB8DFB7DF5E
:1013A000B6DFB5DFCD93A3FFEECFA85F61F71124C1
:1013B000089510921901009141010C5D00934101C3
:1013C00000913E01F1E0E0EFE00F67D6E0B50E5F7F
:1013D00000933E010BC029E1A0EBB1E0C0E2D1E0F7
:1013E00008E00D9319922150E1F70895F4DF00E031
:1013F00010E12BDB412FACE21695A11B18E025DB99
:101400001D934150D9F70895E6DF1092190106E1C6
:1014100000933D010DED00933C01089513DAFFE1C7
:101420005BE0B4E0A0E01D92AA23E9F7B4E0E0910C
:101430001301E695E0911201E795149105E081030F
:10144000812DF39B80E0E0911201EE0F90EE16E10A
:1014500027E13BE2E7FD2ED0E55515E02AE03FE12C
:10146000E7FD28D0E55511E022E036E1E7FD22D086
:10147000E65516E127E13BE2E7FF1CD0E55515E014
:101480002AE03FE1E7FF16D0E55511E022E036E122
:10149000E7FF10D0E655E81B9052C8F611240895D6
:1014A000F39A0895F59A0895F69A0895F79A08958B
:1014B000F7980895F39903C015E12AE23FE3E05459
:1014C0004491E05CD403A12DA45FA90F1D932D933B
:1014D0002D933D933D932D932D931D93089530921D
:1014E0004001309242010895009141010C5F68F47F
:1014F000009341010093430104C9009101010F5F72
:1015000000330CF000E300930101089501696AAA19
:1015100000006A86AAA1AAA40FFEBFFFD00BFFEBB2
:10152000FFFBFFFC3FFFBFFFF03FFFEBFFFBFFFDBB
:10153000BFFFBFFFF4BFFFFBFFFFFFFEBF807A4B83
:10154000F5FFAA9BF8002FC0FF00BF4FF5FFBFDBE0
:10155000FFF42FC0BF40BF7FF2FFFFDBFFF02FC0C3
:10156000BF40BFFF83FFFFDBFFF02FC07FEABFBF9D
:1015700083FFFFDBF9502FC07FFFBF7FD2FC2FDB43
:10158000F4002FC02FFFBF6FF2FD2FDBF4002FC040
:1015900005BEBF4FFDFF2FDBF8002FC00000B007D6
:1015A000F8FE000BE0000000000000029060000365
:1015B0004000000000408744DF147C001408D00580
:1015C0006AFD0F482724FC41729BC4172CFC407114
:1015D00047C40724FC827000806601964D03309C4E
:1015E00006693C0D02840118BF0541829180801874
:1015F0005486E48013FF480086E00A80E81552D044
:101600000834FA88B29FBAE00200AE02207B03E2FF
:101610002C00124204B33DF3992B5FED7F801259E9
:101620006C24C2C97024F2DA642502E058C5B0B255
:10163000087440012A051F00B816490C2CC218591D
:10164000A430B42805D4EC0008D1A226BC02204B5B
:10165000C0A207BFFE207BC0A204BC020069E5B3A4
:10166000006A10003F54B81DF96CC01E0204B81E79
:10167000116CC01E21703C62D9803C82E07945B378
:10168000007985C0F38B6600F40C2E2B1FFC7FF1D4
:10169000DF24012078A7F207A4011DF002023944DB
:1016A0002833096867740A78E91501553FBDA168B8
:1016B0004DF5FF84DE00B80AC8021061426FB5FE26
:1016C000E7F09BC018BA8031810E89BE28F8031B51
:1016D0005137C51F1012F1F0064AA01C00082092D5
:1016E0008CA07980D48E4F1BDD493D8C2C80D0910D
:1016F000C59CC067C8029142B83D2EA036F7F3E002
:101700003C8A5A25C79800000001221E30740199B6
:1017100001D00A450AE0F4BA801C8B7074037BA7E1
:1017200004C823C83A0224E9A0580216CFA25EE0FA
:1017300074060A64C49D140740B2DD8594C1D02E9E
:1017400059783A069B00E8270615C42B8650741476
:101750001301D05105183A0A4823A25EE074164CD2
:10176000A9F059C5A4C49CC524CE59C569C54CCEA1
:1017700055CE73C612C720C7A1C5EEC793CE94CE6F
:1017800095CE8ECE0BC84EC5C5C592CEE2C8EFC869
:10179000FAC6CBC599CB15C6D8C8D9C87ECDE8C680
:1017A000D3C6AFCDCBC8ADC7CCC543C5A2C7BDC896
:1017B00096CE9ACEA2CE51CB28C6D6CD7CC68BC6AD
:1017C00070C644C8C6B80000096624F3B0B39D854E
:1017D00099893938C2D40C4A45A8C6D800984D9D7D
:1017E0008598B59D85B4EC2D67429D859CE853B0E6
:1017F000B12118584EC2C00C2C67616212C003138D
:10180000353E1673B0B3025985A812E7626A00C666
:10181000D80973B0B6016A2CE761633B0B0261859E
:1018200080B1211859908C6D4000840616404B03FE
:101830000B30258185A812C0C6D80009661662D66D
:101840007616D3B0B896185B0B59C1859CE0C2D60A
:101850005000025861622CE7616B3B0B625985A80E
:10186000B39C1858938C6BC00026CB0030BF5EAE83
:10187000D758DC8185D0BC21185E908C2FE700CA38
:10188000527652D3B2969D94B4E0CA527652D500A5
:1018900000000000C306761753B0BA9D85D4B27617
:1018A0001713B0BA9604E0000000C2F67647A2F41F
:1018B000C2F65CE323C30BD961992CECC9685028AC
:1018C0001992CECC94A14280C2F67647A2F4CAF611
:1018D0005CE323C33BD2584E0000002C0000000004
:1018E00000000CCC0580AA0140009C000000000014
:1018F000000000C8FC5B627F917626D91B625D9177
:10190000FE26D91B627F917626D91B625D91FE2649
:10191000D91C627F918627191C626191FE27191CD0
:10192000627F918627191C6260C907138C8F314131
:10193000C8B313CC8F312CC90713CC8F3141C8B336
:1019400013CC8F312CC8F713DC8EB13DC8BB13AC60
:101950008EB12EC8F713AC8EB13DC8B313AC8EB1A7
:101960002CC91F13AC8FF147C8DB13FC8FF136C9AC
:101970001F13FC8FF147C8DB13FC8EF136C6D40C65
:101980002DC5C908C2E884617800C91F13AC8FF166
:1019900047C8DB13FC8FF136C91F13FC8FF147C812
:1019A000DB13FC8EF136C7040C30C62938E4B800CE
:1019B000CE3C9C651E0665400651E246765233B227
:1019C0009126999500194E80CA5A765233B29626BE
:1019D0009995194C138CA504B01340CCA8CA3C04AB
:1019E00088CA5826866542A8CA284519950AA32898
:1019F000C11866542A8CA384719950CE3C9C651FF3
:101A000034332A329B26CECA3E765284E032943357
:101A10002A328F9D946000CA3427651A264CCA8CDE
:101A2000A449C651A2482765293B2929D9954ED0FA
:101A300028045E6540CCA8551965B258EC4612FDE5
:101A40007ABBCC94529A0884ECA3C46CEA065193F6
:101A5000A850CA2A80CA584504ECA2A7665400655B
:101A600028944DCECA6E765362667665465333B27D
:101A70009409C0CE58CA282765153B32A0032944D3
:101A8000A26E765373B29B1333B32A32999D94A0FE
:101A90004ECA4A7652413B2929D9950019494ECA66
:101AA0005004A4ECA2276654652A0138A050028194
:101AB000400A14280140A05002801400CCA8CA5A41
:101AC000765153B296332A32969D9452592C96EA07
:101AD000A8CA2A7652D3B2969DD55194B08A45258C
:101AE000A700CA5A7652D3B28A12D3B32A329612B8
:101AF00082567652D3B2969D9450969D995194B445
:101B0000ECA512A96A00CCA8551965B258EC46128A
:101B1000FD7ABBCC94529948CECA467681F3B291F5
:101B20009D946D0D0468651943411A00CE4A7652A2
:101B3000413B2929D9950019494ECA5004A4ECA269
:101B4000276654652A0138C8CC2706466B35FCEC5D
:101B50008FE76266B1582BB22D016002B80568ADFF
:101B6000000C8B85718A0AFF0BD1793B0BA9D85CDD
:101B70004EC6E8258064620000C8CC2706466B3557
:101B8000FCEC8FE7624EA9552B322D015A2B89C6EA
:101B90001604E31B200C2CC5AE266B258615D3B28C
:101BA0002E0030B032300030B232320000D2B805F0
:101BB0008CED2C00588B309DA5880B0015C02B0098
:101BC000D2B8058CED2C00588B309C00000000C66C
:101BD000D409661522B8580B19D859CEC2D49661CB
:101BE0006C2D42761664E30B5AC0C2E8960615D3F4
:101BF000B0B116D3B0BA9D85ECEC2F09661742E060
:101C00009C61733831BA002500012C0C50588C6D42
:101C100032064CED3127698C0615C2C67616B380A4
:101C2000C2D45980B3016202C405800AE015800065
:101C3000C6B80000000960066602C05500A0000991
:101C4000618A0B118DA694ED31A7616A698D3B4BBA
:101C5000A9D8599A5D4ED2BA761622C058CEC2CEB5
:101C600070C2AA50012E698550AE9D858CEC6C0027
:101C7000C2C459938C2C45812CC2C6500615C4E0B1
:101C8000000000030AC9412E70C2C65061602C4991
:101C9000C61662D6761713BBB5016602C40580006E
:101CA000C2E95C012C0C2C4584EC2BA761582B89D4
:101CB000C636012F0B31633B0B09C0C2BA5012C0AC
:101CC000000000000000C6B827615D3B1AE09D855A
:101CD00074EC6B827615D3B1AE09D852A914A29CCC
:101CE000548AC0DF345D0CD1962E8658C817432421
:101CF0005D0CB1743345D0CE1740DF345D0CD19606
:101D00002E8658C81743245D0CB33301602A8DF327
:101D10008CC800E2B8C31A7715C64893B0C697C9F5
:101D200071C1898624EE2B8C31A7715C64893B0CD0
:101D3000697C971C189400E6B8C31A7735C649D356
:101D4000B0CD97C571380E4B8C31A7725C649D3B4A
:101D50000CD97C97018658E2B80574EE2B80574E5B
:101D6000E2B8C49E761673B0B3312727185A81891A
:101D700048B500E2B8C3267715C64973B0CD97C9F8
:101D80007001C5713A7715C4E0392E0000E6B8C37A
:101D90001A7735C64893B0C697C571C18940E4B873
:101DA000C31A7725C64893B0C697C971C1894280C6
:101DB000E6B8E0C4E6B8E0C40E2B89C50392E27130
:101DC000C97138E4B89C725C715C00E2B89C715CCB
:101DD0004E0392E3831038AE271C571380E4B8E01B
:101DE000C4A000E6B8E0C4E6B8E0C40E2B8E0C40F8
:101DF000E4B89C725C4E0392E38312800000000002
:101E0000FFFF1FFFE3FFE3FF1FCFF91F8FFFFFFF60
:101E1000FFFFFFFFCFFFFFFFFFFFFFFFFFFFFFFF02
:101E2000FFFF9FFFF3FFCDFF9FFFFF9FCFFFFFFF50
:101E3000FFFFFFFFCFFFFFFFFFFFFFC383FFE7FFB2
:101E4000FF87838383838787838FF199CF0383837E
:101E5000C3834783833339F9393981993DE7E7FFF4
:101E6000FFF399393339CF3399CFF993CFE99939C2
:101E700099339F3FCF3339298B39B3F983C381FF1E
:101E8000FF93993F3321CF3399CFF997CF299939D0
:101E900099339F83CF333929EF39E7813CC3E7FF7B
:101EA000FF33F939333FCF8399C79993CF299939B4
:101EB00093939FF9CD333329A389CD1F3CE7E7FFE7
:101EC000FF010303818387F3198799198729998370
:101ED0009FF30F03E387C78339F9810181FFFFFF78
:101EE000FFFFFFFFFFFFFF87FFFFC3FFFFFFFFFFB6
:101EF0009FF3FFFFFFFFFFFFFF03FFFFFFFFFFFF5A
:101F0000000306090C101316191C1F2225282B2E5E
:101F1000313336393C3F414447494C4E5153555873
:101F20005A5C5E60626466686A6B6D6F7071737430
:101F3000757678797A7A7B7C7D7D7E7E7E7F7F7FE9
:101F40007F7F7F7F7E7E7E7D7D7C7B7A7A797876CF
:101F500075747371706F6D6B6A68666462605E5CE5
:101F60005A585553514E4C494744413F3C393633FA
:101F7000312E2B2825221F1C191613100C090603BD
:101F800000FDFAF7F4F0EDEAE7E4E1DEDBD8D5D2C4
:101F9000CFCDCAC7C4C1BFBCB9B7B4B2AFADABA88F
:101FA000A6A4A2A09E9C9A9896959391908F8D8CB2
:101FB0008B8A8887868685848383828282818181D9
:101FC0008181818182828283838485868687888AD3
:101FD0008B8C8D8F9091939596989A9C9EA0A2A49D
:101FE000A6A8ABADAFB2B4B7B9BCBFC1C4C7CACD68
:101FF000CFD2D5D8DBDEE1E4E7EAEDF0F4F7FAFD85
:00000001FF
